:020000040800F2
:1000000000500020C91E0008DD030008DD030008C1
:10001000C11E0008C11E0008C11E0008000000002B
:10002000000000000000000000000000C51E0008E5
:10003000C51E000800000000C51E0008C51E0008FF
:10004000C11E0008C11E0008C11E0008C11E000814
:10005000C11E0008C11E0008C11E0008C11E000804
:10006000C11E0008C11E0008C11E0008C11E0008F4
:10007000C11E0008C11E0008C11E0008C11E0008E4
:10008000C11E0008C11E0008C11E0008F9070008B3
:10009000F9070008C11E0008C11E0008C11E0008A3
:1000A000C11E0008C11E0008C11E0008C11E0008B4
:1000B000C11E0008C11E0008C11E0008C11E0008A4
:1000C000C11E0008C11E0008C11E0008C11E000894
:1000D000C11E0008C11E0008C11E0008C11E000884
:1000E000C11E0008C11E0008F9070008C11E000853
:1000F000C11E0008C11E0008C11E0008C11E000864
:10010000C11E0008C11E0008C11E0008C11E000853
:10011000C11E0008C11E0008C11E0008C11E000843
:10012000C11E0008C11E0008C11E0008C11E000833
:10013000C11E0008C11E0008C11E0008C11E000823
:10014000C11E0008C11E0008C11E0008C11E000813
:1001500038B504464FF400515C4800F0ABFF152C55
:1001600028D8DFE804F031424C5F7E882727272714
:100170002727272727272E278F0B9A3B00F03AFAAD
:10018000534D544C286000F035FA03461021524874
:10019000236000F091FF2868002840F0938006203B
:1001A00000F0C4F92068002840F0898010214A48F6
:1001B00000F080FFBDE838404FF40051434800F0A4
:1001C0007BBF152000F0B2F9062000F0AFF9BDE8C2
:1001D00038404FF400513D4800F06EBF00F0E4F9A4
:1001E000002869D000F000FCEEE7062000F09EF940
:1001F000012000F09BF9002000F098F9DAE70620D2
:1002000000F094F9354800F0A3F90023344C237032
:10021000002000F08BF923780133DBB21B2B237015
:10022000F6D9C7E7062000F081F9002373202D4C92
:100230002D4D237000F07AF923780133DBB2E85CAE
:1002400023700028F6D1264C0F2B2370B2D8002043
:1002500000F06CF923780133DBB20F2B2370F6D951
:10026000A8E7062000F062F9FF2000F05FF9FF2008
:1002700000F05CF99EE7062000F058F9082000F035
:1002800055F997E700F090F940F00800C0B208284F
:100290009AD0152000F04AF98CE700F00DFA134CC3
:1002A00020600028F5D0062000F040F9206800F01A
:1002B000BBFB00F04DF97DE700F08EFB84E700F01A
:1002C00039FC73E700F08EFC69E700BF00100140C5
:1002D0002400002020000020000801403F003D00D5
:1002E0001C0000201D000020C0260008180000206F
:1002F000F8B54FF4417000F04BFF4FF4005300226B
:100300000221304800F050FE4FF400512D4800F01B
:10031000D1FE00F0D5FE40F2023000F039FF40F28D
:10032000023000F035FF4FF4407000F031FF4FF421
:10033000805300220221244800F036FE4FF4805101
:10034000214800F0B7FE00F0ABF8204800F06CFB4D
:100350001F4F204C1B4E204D4FF40051304600F0F3
:10036000ABFE3B7843BB4FF40053012200213046E3
:1003700000F01AFE2368952B08D9002200BF2368DD
:100380000132A5FB0313B2EB131FF7D34FF4005355
:1003900000220221304600F007FE2368952BE0D9A9
:1003A000002200BF23680132A5FB0313B2EB131F29
:1003B000F7D33B78002BD6D000F0F6F8FFF7C8FE55
:1003C000CAE700BF00100140000801408096980075
:1003D000410000200C000020B5814E1B10B50E4CD2
:1003E0004FF4005300220221204600F0DDFD4FF4BF
:1003F0000051204600F05EFE084900BF0139FCD1E3
:100400004FF400530122204600F0CEFD034B00BF05
:10041000013BFCD1E4E700BF00100140404B4C0021
:100420004878202805D0A0F12200B0FA80F04009D9
:1004300070471888062894BF00200120704700BF2D
:100440000022014B1A7070474100002070B5002651
:1004500004460D4682B0402302220121009600F09E
:1004600085FF2046402302228221009600F07EFF75
:100470002046102303228321009600F077FF2046B8
:100480007F222121044B01F063F815B10122034BB7
:100490001A7002B070BD00BF2104000841000020A6
:1004A00010B5192184B0104800F0F8FB8021032218
:1004B0000E4B0291CDE900230D490E4B0E4A0F4819
:1004C00000F008FF0E4C0F49206001F021FC20686D
:1004D0000D4900F029FF142001F068FD2A2004B026
:1004E000BDE8104001F062BD280000208800002017
:1004F000882700080000002040270008D0270008B7
:10050000080100204D0400084104000870B50546AC
:10051000054E8CB223462A468221306800F02EFF19
:100520000028F7D070BD00BF0801002010B5074CAF
:1005300082B08DF807000123822120680DF10702A7
:1005400000F01CFF0028F6D002B010BD080100200A
:1005500010B5074C82B001900423822120680DEB76
:10056000030200F00BFF0028F6D002B010BD00BF60
:100570000801002038B5084D084C402322460121CF
:10058000286800F003FF0028F7D000240449054A3A
:100590000C70107038BD00BF08010020440000201E
:1005A0008400002085000020F8B50E4C0E4D237805
:1005B0002A789A4205D90D495A1CD2B2C85C2270D9
:1005C000F8BD0B4F094E402332460121386800F038
:1005D000DDFE0028F7D00122002304492870227094
:1005E000C85CF8BD84000020850000204400002085
:1005F000080100202DE9F0472B4D2C4E2A78307849
:10060000824219D2531C2A4CDBB2984214F8028061
:1006100025D91A46013314F80290DBB298424FEA0A
:10062000092931D95A1CD2B2E05C48EA090848EAE3
:1006300000402A70BDE8F0871E4F1D4C4023224623
:100640000121386800F0A2FE0028F7D00123002223
:10065000C0B2174C984214F802803070D9D8A14625
:10066000144F2B7040234A460121386800F08EFE5B
:100670000028F7D000220123C0B214F8029098425B
:1006800030704FEA0929CDD80A4FDFF824A02B702B
:10069000402352460121386800F078FE0028F7D048
:1006A000012200233070BFE7840000208500002075
:1006B00044000020080100202DE9F047404E414F42
:1006C00032783878824220D2531C3F4DDBB29842B8
:1006D000AC5C2ED91A46013315F80280DBB2984281
:1006E0004FEA08283CD91A460133AA5CDBB244EA37
:1006F0000804984244EA02444BD9E85C5A1CD2B23E
:10070000327044EA0060BDE8F087DFF8C0902E4CFC
:10071000402322460121D9F8000000F037FE0028CE
:10072000F6D001230022C0B2274D9842AC5C38704D
:10073000D0D8A846DFF89490337040234246012178
:10074000D9F8000000F022FE0028F6D00022012394
:10075000C0B215F80280984238704FEA0828C2D813
:10076000DFF86890DFF860A0337040235246012123
:10077000D9F8000000F00AFE0028F6D0002201237C
:10078000C0B2AA5C44EA08049842387044EA0244C1
:10079000B3D8DFF83890DFF830803370402342461A
:1007A0000121D9F8000000F0F1FD0028F6D0002367
:1007B00001223870E85C327044EA0060BDE8F087DE
:1007C0008400002085000020440000200801002053
:1007D00010B40649064C0B782478064A0C701A446B
:1007E000E31A026010BCD8B2704700BF840000203A
:1007F0008500002044000020014B186800F0B2BDC5
:100800000801002070B50546344C354E20460221C3
:1008100000F01EFB2046032100F01AFB2046324662
:10082000022100F0A5FB204602212E4A00F0AAFB7F
:100830002A462046022100F0AFFB2046022100F0AC
:100840006FFB2046022100F057FB204600220221C8
:1008500000F042FB20460022022100F02DFB204642
:100860004FF44052022100F017FB3246204603218C
:1008700000F07EFB204603211B4A00F083FB2A4642
:100880002046032100F088FB2046032100F052FBA4
:100890002046032100F03AFB20460022032100F00D
:1008A0001BFB20460022032100F006FB4FF4005200
:1008B0002046032100F0F0FA0C4D2046022100F002
:1008C00043FB2046032100F03FFB284600F0E0FCFC
:1008D0002846BDE8704000F0CFBC00BF00000240D9
:1008E0000C3001400C0100204D010020003001407F
:1008F000F8B50E460546344C344F2046022100F030
:10090000A7FA2046032100F0A3FA20463A46032125
:1009100000F02EFB32462046032100F033FB2A462E
:100920002046032100F038FB2046032100F002FBA3
:100930002046032100F0E0FA20460022032100F0C7
:10094000CBFA20460022032100F0B6FA20464FF4ED
:100950000052032100F0A0FA3A462046022100F09E
:1009600007FB204602211A4A00F00CFB2A462046CB
:10097000022100F011FB2046022100F0D1FA2046AE
:10098000022100F0C3FA20460022022100F0A4FA5E
:1009900020460022022100F08FFA4FF440522046F8
:1009A000022100F079FA0B4D2046022100F0CCFA2A
:1009B0002046032100F0C8FA284600F069FC2846CA
:1009C000BDE8F84000F058BC000002400C30014087
:1009D0004C01002000300140F02301220021014899
:1009E00000F0E2BA0008014010B50E4CA0232046EA
:1009F0000222032100F0D8FA2046402302220021DF
:100A000000F0D2FA204610230022032100F0CCFA95
:100A10002046402100F04EFB2046BDE8104010214A
:100A200000F048BB00080140F0B5074683B04FF422
:100A3000437000F0ADFB4FF4207000F0A9FB3A4B7F
:100A400003211E683948B7EBD61F4FEA961235BF0F
:100A5000340AF40938253025BA4298BF14464FEAC3
:100A6000561298BF2825BA4298BF14464FEA16126C
:100A700098BF2025BA4298BF14464FEAD60298BFC5
:100A80001825BA4298BF14464FEA960298BF10251F
:100A90007608BA429CBF14460825A023BE424FF0F8
:100AA00002029CBF3446002500F07EFA4023022259
:100AB00000211E4800F078FA1023002203211B4871
:100AC00000F072FA4021194800F0F4FA102117489A
:100AD00000F0F0FA164800F07BFB002329461A4686
:100AE000CDE90033124800F0DFFB114800F0A2FB13
:100AF0000F4800F0A9FB0E4800F090FB0C4800F0F6
:100B0000B5FB0B4800F0ACFB094800F0A3FB08481C
:100B100000F08AFB064800F07BFB054800F072FB02
:100B2000204603B0F0BD00BF1400002000080140C3
:100B3000003001403F28F8B5074628D90546264C25
:100B4000264E4020FFF75EFE403D0222224811461D
:100B500000F098F90028F8D002222046114600F053
:100B60008BF9304600F09AFB304600F08BFB0221F7
:100B7000204600F0F3F90321204600F0EFF9402170
:100B80001748FFF7C3FC3F2DDBD807F03F0707B935
:100B9000F8BDB8B2FFF736FE02220F48114600F04A
:100BA00071F90028F8D002220B48114600F064F9D0
:100BB0000A4800F073FB094800F064FB0221064874
:100BC00000F0CCF90321044800F0C8F93946BDE82B
:100BD000F8400348FFF79ABC000002400030014093
:100BE0000C010020F0B583B0064601A8FFF7F0FD28
:100BF00058BB2EB3264D274FFFF7BCFCC0B20446AE
:100C00002549FFF775FE361B02222846114600F0E3
:100C100039F90028F8D002222846114600F02CF9B4
:100C2000384600F03BFB384600F02CFB02212846FA
:100C300000F094F90321284600F090F9002EDBD152
:100C400001A8FFF7C5FD03B0F0BD0446019980B2CD
:100C5000FFF74EFE0E4D361B02222846114600F0CD
:100C600011F90028F8D002220948114600F004F9D1
:100C7000084800F013FB074800F004FB0221044879
:100C800000F06CF90321024800F068F9B1E700BFF9
:100C9000000002400030014044000020192928BF14
:100CA0001921F0B40E46074688B0674D03AC0FCD4E
:100CB0000FC42A68654B22701A68083B00925A6874
:100CC000711E01921B6800293846029340F3B680DA
:100CD0009DF8003008AC03F00F02224404EB13131C
:100CE00012F8142C13F8143C02297A703B7040F36C
:100CF000A5809DF80130042903F00F02224404EB83
:100D0000131312F8142C13F8143CFA70BB7040F350
:100D100095809DF80230062903F00F02224404EB6F
:100D2000131312F8142C13F8143C7A713B7140F32E
:100D300085809DF80330082903F00F02224404EB5C
:100D4000131312F8142C13F8143CFA71BB7175DDEF
:100D50009DF804300A2903F00F02224404EB131318
:100D600012F8142C13F8143C7A723B7266DD9DF86D
:100D700005300C2903F00F02224404EB131312F880
:100D8000142C13F8143CFA72BB7257DD9DF8063030
:100D90000E2903F00F02224404EB131312F8142C53
:100DA00013F8143C7A733B7348DD9DF80730102923
:100DB00003F00F02224404EB131312F8142C13F85F
:100DC000143CFA73BB7339DD9DF80830122903F027
:100DD0000F02224404EB131312F8142C13F8143CE2
:100DE0007A743B742ADD9DF80930142903F00F0250
:100DF000224404EB131312F8142C13F8143CFA7465
:100E0000BB741BDD9DF80A30162903F00F02224443
:100E100004EB131312F8142C13F8143C7A753B7579
:100E20000CDD9DF80B3003F00F02224404EB13138A
:100E300012F8142C13F8143CFA75BB7500234354B4
:100E400008B0F0BC704700BFBC270008F0F7FF1FD8
:100E500010B400240F22013901EB810300EB83035E
:100E60009C60DC601C615C614368890002FA01F1EE
:100E7000194310BC416070470139890002FA01F141
:100E80004160704701390368890002FA01F1194293
:100E900014BF012000207047013901EB8101890056
:100EA000083010B40C5824F440540C500B5810BCAB
:100EB00013430B50704700BF013901EB81018900DA
:100EC000083010B40C5824F440640C500B5810BC7B
:100ED00013430B50704700BF013901EB81018900BA
:100EE000083010B40C5824F440740C500B5810BC4B
:100EF00013430B50704700BF013901EB810189009A
:100F000008300B5843F080030B507047013901EB58
:100F10008101890008300B5823F080030B50704783
:100F2000013901EB8101890008300B5823F01003CF
:100F30000B507047013901EB8101890008300B58D3
:100F400043F010030B507047013901EB8101890018
:100F500008300B5843F001030B507047013901EB87
:100F60008101890008300B5823F001030B507047B2
:100F7000013901EB810100EB81018B68DB0758BF70
:100F80000A617047013901EB810100EB81018B6837
:100F9000DB0758BF4A617047013901EB81018900C5
:100FA0000C300A50704700BF70B4DE070568446813
:100FB00004D525F00F0541EA820635439E0705D585
:100FC000960125F0F00546EA011635435E0705D582
:100FD000960225F4706546EA012635431E0705D5BD
:100FE000960325F4704546EA01363543DE0605D5FD
:100FF000960425F4702546EA014635439E0605D53C
:10100000960525F4700546EA015635435E0605D57A
:10101000960625F0706546EA016635431E0605D53D
:10102000960725F0704546EA01763543DE0504D57E
:1010300024F00F0441EA820634439E0505D596014B
:1010400024F0F00446EA011634435E0505D5960205
:1010500024F4706446EA012634431E0505D5960340
:1010600024F4704446EA01363443DE0405D5960480
:1010700024F4702446EA014634439E0405D59605BF
:1010800024F4700446EA015634435E0405D59606FE
:1010900024F0706446EA01663443DB0B05D0920706
:1010A00042EA017224F0704414430560446070BC4D
:1010B000704700BF0161704709040161704700BFBC
:1010C00038B52C4B1A46196841F0010119601368B4
:1010D0009907FCD52849274D0B6823F003030B60C3
:1010E000136843F4803313602B689A03FCD5224CB9
:1010F0000220236823F0030343F0010323602368E5
:1011000023F0F0032360236843F440432360236803
:1011100023F4E06343F480632360236823F4605383
:10112000236000F051FF2368124A23F4701343F444
:10113000E0132360236843F480332360236823F49F
:10114000003323602B6843F080732B6013689B018E
:10115000FCD50949094A0B68094D23F0030343F004
:1011600002030B60074C0848084B2A6022600360AA
:1011700038BD00BF001002400410024000A24A0423
:101180000C00002014000020100000200051250257
:101190000122430903F1804303F50433196800F089
:1011A0001F0002FA00F0084318607047012243094B
:1011B00003F1804303F50433196800F01F0002FABD
:1011C00000F0014319601A6822EA000018607047B5
:1011D0000B4B984208D003F5744398420CD0A3F50A
:1011E0007843984204D0704740F20F20FFF7DEBFEB
:1011F00040F20E20FFF7DABF4FF4C670FFF7D6BFFC
:10120000003C0040036843F040030360704700BFA8
:10121000036823F400430360704700BF036823F4AE
:1012200000530360704700BF036823F480630360CA
:10123000704700BF036843F400730360436823F002
:1012400004034360704700BF036843F48073036086
:10125000704700BF436823F080034360704700BFBE
:10126000436823F040034360704700BF436823F0A6
:1012700020034360704700BF436843F002034360AC
:10128000704700BF436823F002034360704700BF0C
:10129000436843F001034360704700BF436823F095
:1012A00001034360704700BF70B405460468049EA4
:1012B000039804F44154344304431C4314436B68BF
:1012C0000C4344F0040443F004036B6000202C60E2
:1012D00070BC70472DE9F04D804600688B46924601
:1012E0001E46BDF82850804700278660089E0B4A9E
:1012F0000B490C4BC660099EC0E91B12C0E932774E
:10130000C0E93477C0F800B0C0F8DC80C0F804A0B1
:10131000066185828366BDE8F08D00BF89150008EF
:10132000ED150008B5170008C161704770B50025BC
:1013300004460368D0F8DC20C58282B0DB790095D2
:10134000294696682A46B047D4F8DC3029465B68BF
:1013500020469847E3691BB102B0BDE870401847CA
:1013600002B070BDD0F8DC305B6A184710B4D0F81A
:10137000DC40A468A44610BC604700BF10B4D0F89D
:10138000DC40E469A44610BC604700BF10B4D0F84C
:10139000DC40246AA44610BC604700BFD0F8DC30B3
:1013A0001B691847D0F8DC309B691847D0F8DC304F
:1013B0005B6918472DE9F0410369866C83638B797B
:1013C000CA79044643EA02230D4682B000F1380789
:1013D000838700F13C083EB390F84D3091F800C08F
:1013E00090F84C2003EA0C039A4267D0266DDEB1D8
:1013F0002B7894F8551094F854200B409A4267D0FB
:10140000A66D8EB12B7894F85D1094F85C200B409B
:101410009A4269D0266E3EB12B7894F8651094F804
:1014200064200B409A426BD043463A4629462046F8
:1014300000F092FC0646002E36D0EB884BB3A28F0C
:1014400021689342C97967D9002A7ED0B2FBF1F3B3
:1014500001FB1323B3FA83F38A424FEA531384F850
:1014600044308BB25ED813460021A26B2046FFF7B2
:1014700085FF002394F84420A3879A4214BF0222D8
:10148000032284F8443084F82C20A36302B0BDE822
:10149000F0811A4619462046FFF770FF042384F8AE
:1014A0002C3002B0BDE8F081012231462046FFF722
:1014B00075FF84F82C6002B0BDE8F08100F14003B4
:1014C00000933A464346B047012806468ED8B2E715
:1014D00004F1400300933A46434629462046B0476C
:1014E000012806468CD8A6E704F1400300933A464B
:1014F000434629462046B047012806468AD89AE73F
:1015000004F1400300933A46434629462046B0473B
:101510000128064688D88EE700238A4284F84430A2
:101520008BB2A0D9A26B00212046FFF727FF022231
:10153000236884F82C20D979A26BA38F0A445B1A04
:10154000A263A38702B0BDE8F08184F844208AE753
:1015500010B4846C4CB1046D8CB1846D24B1046EF4
:101560007CB14FF0FF3008E0022400EBC40080F8AB
:101570004C1080F84D208364002010BC704701247B
:10158000F3E70324F1E700BF38B5002504462946F8
:1015900001220564FFF70AFFE38E04F13001C3B1B5
:1015A00094F93020002A14DBA28A9A4216D32169CA
:1015B0002268A163A587D27920469A4234BF0523C9
:1015C000062384F82C302A462946BDE83840FFF728
:1015D000EDBE2046BDE83840FFF7ECBE01222946AB
:1015E0002046FFF7DBFE84F82C5038BD2DE9F04192
:1015F00090F82C300446062B82B00ED0072B00F05A
:101600009180052B6ED001220021FFF7C7FE002339
:1016100084F82C3002B0BDE8F0810368828FC18E5F
:10162000DB798D1A9D42A8BF1D46836BADB21A446B
:1016300000212B46FFF7AAFE854240F0B280A38F1F
:10164000D4F848801D44A58704F1380604F130051C
:1016500004F13C07B8F1000F32D094F8303094F820
:101660004D1094F84C200B409A426ED0D4F8508024
:10167000B8F1000F24D094F8303094F8551094F855
:1016800054200B409A426BD0D4F85880B8F1000F28
:1016900016D094F8303094F85D1094F85C200B402C
:1016A0009A4268D0D4F86080B8F1000F08D094F85E
:1016B000303094F8651094F864200B409A4265D05D
:1016C0003B4632462946204600F046FB002868D0BB
:1016D000002320461A461946FFF750FE042384F8DB
:1016E0002C3097E70368828FC18EDB798D1A9D427B
:1016F000A8BF1D46836BADB21A4400212B46FFF7ED
:1017000045FE85424DD1A38F22681D44ADB2A58709
:10171000E38ED2795D1B95423FF77CAF062384F8B8
:101720002C3077E700231A461946FFF72FFE0022D8
:10173000236C84F82C201BB1204604F1300198471B
:101740000023236402B0BDE8F08104F1400300935C
:1017500032463B4629462046C047012886D8B5E791
:1017600004F14003009332463B4629462046C047D9
:10177000012889D8AAE704F14003009332463B468A
:1017800029462046C04701288CD89FE704F1400332
:10179000009332463B4629462046C04701288FD851
:1017A00094E7012200212046FFF7F8FD002384F88A
:1017B0002C302FE738B590F82C500446032D0BD071
:1017C000042D27D0022D10D001220021FFF7E6FDC5
:1017D000002384F82C3038BD0723002280F82C30F9
:1017E0001146BDE83840FFF7E1BD0268838FD2792A
:1017F0009A4224D213460021826BFFF7BFFD236873
:1018000084F82C50D979A26BA38F0A445B1AA26387
:10181000A38738BD036C13B100F13001984794F8E9
:101820003030002BD4D194F83130052BD0D1618EDB
:10183000D4F8DC3020465B68C9B29847C8E7826BB1
:101840000021FFF79BFD002394F84420A3879A42D0
:1018500008BF032584F82C5084F84430A36338BDB6
:101860000A7882B910B54C887F2C0AD8D0F8DC20D1
:10187000847592F830304BB149885368C9B29847A3
:101880000122104610BD002210467047012210466A
:1018900010BD00BFF8B54F880D460446DFB9C775C7
:1018A000D4F8DC302046DB689847D4F8C83083B1E0
:1018B000002304F1C806A3642365A365236604F12D
:1018C000D80756F8043B13B1204669889847B742B9
:1018D000F7D10120F8BD0368587C0028FAD066686B
:1018E0000023324601E0834222D051790133B942CC
:1018F00002F10D02F7D1DBB203EB430103EB8101EF
:101900000D39E375314408790028C9D000231F46FA
:1019100004E01770087901338342C1D2D1F809601D
:101920001A019259002AF4D101339842F8D8B7E746
:101930000020F8BD1988012984BF01211980C37DC9
:101940005BB1416803EB430003EB80030B44126877
:1019500013F8083C012013707047126801201370BF
:10196000704700BF30B4C47D406804EB440504EB0D
:1019700085040D3C044420798D8885420DD20120D8
:1019800018808B88D4F809101B015B5803B11B78B1
:1019900012680120137030BC7047002030BC7047C3
:1019A00019880120022984BF0221198000231168AF
:1019B0000B7012685370704738B51D881446022D9D
:1019C00084BF02221A808988C9B2FFF7EBFC031E8C
:1019D00018BF01230022216801200B7023685A7070
:1019E00038BD00BF08B589880122C9B2FFF7D6FC0F
:1019F000012008BD08B589880022C9B2FFF7CEFCD6
:101A0000012008BD70B5C27D446802EB420502EBBF
:101A100085020D3A224415798C88A54216D91E46B6
:101A2000D2F809304D8803EB041212792401AA423E
:101A30000CD91A5962B11570D0F8D83013B14A8850
:101A40008988984700230120338070BD002070BD35
:101A5000002DF1D0104670BD2DE9F04F4D8889B0B2
:101A60002C0A022C069309D0032C00F0FF80012CD5
:101A700000F0EF80002009B0BDE8F08F0169EDB201
:101A8000466805EB45031160069A05EB8305735D17
:101A900014880846A34228BF2346721917469A465F
:101AA00080460791029211461A4600F065FD3A7988
:101AB000A4EB0A043946A4B2775D08EB0A03002AB6
:101AC00000F0B88000220392D1F80910039801EBCE
:101AD0000012966800010490BEB135783146A542E7
:101AE00028BF254618462A4600F046FD03460299BF
:101AF0003278D1F8091004981744641BAA44A4B2A0
:101B00001FFA8AFA2B44BFB20A181079002800F095
:101B1000888000210191D2F80C90019A184602EBBE
:101B20004205C5EBC50519F8058009EB0506A0457A
:101B300028BFA0463146424600F01EFD034619F874
:101B40000520D6F80D10A4EB0804C2441744A4B233
:101B50001FFA8AFA4344BFB2B1B1D6F81150184601
:101B6000A542A8BF25461FFA85F8424600F004FDAD
:101B700045460346D6F81120641BC2441744A4B25C
:101B80001FFA8AFA4344BFB23279002A3CD00025BA
:101B9000D6F809B0C5EB05181BF808200BEB0809AF
:101BA000A24228BF224649461846059200F0E4FCAE
:101BB0000346059A1BF80800D9F80710A41A9244A6
:101BC0000744A4B21FFA8AFA1344BFB200293AD0DC
:101BD000D9F80B801846A045A8BFA0461FFA88FB7D
:101BE0005A4600F0C9FC0346D9F80B20317901357B
:101BF0001744AAB2A4EB0B04DA449142A4B21FFA30
:101C00008AFA5B44BFB2C3D8029A0198D2F809108D
:101C1000049A01308A181579019080B285423FF606
:101C20007AAF039A029801320079039292B29042FD
:101C30003FF64CAF0120079B5F80069BA3F800A0F6
:101C400009B0BDE8F08F31790135AAB291429FD831
:101C5000DAE701681D8811601E460B782046AB420A
:101C600028BF2B46338009B0BDE8F08F15F0FF0583
:101C700006692FD084680192013D002C3FF4FAAE32
:101C8000C368AB427FF7F6AE40F2094389889942B8
:101C90007FF4F0AE54F82540204600F0E3FC431CEE
:101CA0005B00DBB2069D33702988019A8B4228BF06
:101CB0000B46032B2B8018D90021601E10F8014F12
:101CC00006EB41035C802B8801315B08013B8B42B2
:101CD000F4DC0AE004230921F370B1700699337033
:101CE0000B88042B28BF04230B800323012073706F
:101CF000166009B0BDE8F08F19880120022984BF61
:101D000002211980002311680B701268537070470C
:101D1000D0F8C830B3B1994211D0D0F8CC3083B1EB
:101D200099420CD0D0F8D0308BB1994207D0D0F87E
:101D3000D43073B1581A18BF4FF0FF3070470020ED
:101D400070470123323340F82310002070470223EC
:101D5000F8E70323F6E700BF10B40C7814F0600F27
:101D600006D104F01F04012C2BD0022C1ED014B17C
:101D7000002010BC70474C78092CF9D80FF2040CE5
:101D80005CF824F0E11D0008711D0008711D0008B9
:101D9000711D0008711D0008E51D0008DD1D00080B
:101DA000711D0008D91D0008E91D00084C78012CA0
:101DB0001CD0032C1FD0002CDAD1124CA44610BC2E
:101DC00060474C780A2C1BD00B2C03D0002CCFD1B1
:101DD0000D4CF3E70D4CF1E70D4CEFE70D4CEDE743
:101DE0000D4CEBE70D4CE9E70D4CE7E74C88002C78
:101DF000BED10C4CE2E74C88002CB9D10A4CDDE78F
:101E00000A4CDBE7B9190008F91C0008051A00089C
:101E100035190008591A0008A119000861180008AE
:101E200095180008F5190008E5190008651900085B
:101E300010B540F29730FFF7ABF900234FF41C4187
:101E4000044A0548054C1360036023600448116090
:101E500010BD00BF405C0040505C0040445C00404E
:101E6000500100200132530852080ED010B45C1EFD
:101E7000A4B2013401EB440431F8022B04308C424B
:101E800040F8042CF8D110BC7047704770B402F0D1
:101E90000106520812D00B46013A94B2013400EB0D
:101EA000440533F8042B20F8022BA842F9D101EBAA
:101EB00084010EB10B782B7070BC70470546F8E7B3
:101EC000FEE700BF704700BF38B52D4B2D4DAB422C
:101ED0000FD21946013DED1A2B4C25F003050435B0
:101EE00022462C4452F8040BA24241F8040BF9D1CB
:101EF0002B44264A93420BD20020013AD21A22F0F8
:101F0000030204321A441946043393420860FAD19A
:101F10001F49204D0A68204B42F400729D420A601E
:101F20000BD2013B5B1B23F0030304332C461D44FF
:101F300054F8043B9847AC42FAD1184D184B9D42D7
:101F40000BD2013B5B1B23F0030304332C461D44DF
:101F500054F8043B9847AC42FAD1FEF7C9F9114D49
:101F6000114B9D420BD2013B5B1B23F00303043357
:101F70002C461D4454F8043B9847A542FAD138BD7D
:101F8000000000201800002004280008540200204F
:101F900014ED00E0042800080428000804280008C4
:101FA0000428000804280008042800080122430926
:101FB0009B0003F1604300F01F0003F5614302FA48
:101FC00000F01860704700BF034A136823F007034E
:101FD00003431360704700BF00200240024B41F0F2
:101FE00080011960704700BF4C5C0040F0B54FF0B5
:101FF000C06701F07F06B40004F1804404F5B844E2
:10200000256883B025F4E0450DF1080C25F07F0527
:102010000CEB42023543DFF820C1ADB2CDE900C779
:102020002560256832F8082C25F4EC4525F070056C
:10203000154349B2ADB20029089F25603FDB002E51
:102040003DD0B0F818C0F500384A394912683E2B27
:1020500092B22A444FEA42021144C1F800C05FD94B
:10206000013BC3F3441203F4787342F0200220339F
:102070002E499202096892B289B20D442D496D0031
:1020800029440A6027B106EB460600EB8606F76690
:102090004CF68F7122689C440A402260226822F428
:1020A000804222F0700292B282F4405242F4004226
:1020B00042F080022260A0F818C003B0F0BD1B4AB5
:1020C000B0F818C01268F50092B202EBC6025200D6
:1020D00002F1804202F5C042C2F800C027B106EB0F
:1020E000460200EB8202976648F6CF7E22689C4447
:1020F00002EA0E02226022681FFA8CFC22F4E042FF
:1021000022F0400292B282F0200242F4004242F0F9
:10211000800200292260A0F818C095DA03B0F0BD53
:1021200001335A0853009BB2A2E700BF505C004045
:10213000086000400C6000400002000448F2800388
:1021400070B4284D284C2968284A2140194389B287
:1021500029602968264E1140194389B229603168E7
:102160002140194389B2316031681140194389B265
:102170003160A9682140194389B2A960A96811405A
:10218000194389B2A960B1682140194389B2B1608D
:10219000B1681140194389B2B160296921401943DE
:1021A00089B2296129691140194389B229613169CC
:1021B0002140194389B2316131691140194389B213
:1021C0003161A96906682140194389B2A961A969E9
:1021D0000A4013439BB2AB61F37920335B00038366
:1021E00070BC7047045C0040BF8FFFFF8FBFFFFFD4
:1021F000085C004010B400293AD1002A14BF102412
:1022000020242F48036823F4E04323F04003634075
:102210001BB243F4004343F080039BB20360A2B1BE
:102220004FF48052890001F1804101F5B8410B68FB
:1022300023F4804323F070039BB2534043F40043E4
:1022400043F0800310BC0B6070474CF68F70890020
:1022500001F1804101F5B8410B684FF44052034051
:102260000B600B6823F4804323F070039BB2E4E718
:102270000B06D4D501F07F01890001F1804101F501
:10228000B8410B6823F4E04323F040039BB242B112
:1022900083F0100343F4004343F0800310BC0B6051
:1022A000704748F6CF7283F0200343F4004343F0B5
:1022B00080030B600B6810BC13400B60704700BFBD
:1022C000005C00400B060DD4890001F1804101F54E
:1022D000B841086800F44050A0F58050B0FA80F092
:1022E0004009704701F07F01890001F1804101F54B
:1022F000B841086800F03000A0F11000B0FA80F09A
:10230000400970470B061CD40E4B5A54890001F14A
:10231000804101F5B8410B6823F4804323F070033A
:102320009BB23AB183F4005343F4004343F080037B
:102330000B60704783F4405343F4004343F0800341
:102340000B6070474C0200202DE9F04101F07F0442
:10235000A60006F1804606F5B846356805F030055A
:10236000302D2FD01F46DFF868801146D8F8005076
:102370001A46ADB205EBC4056D0005F1804505F5C3
:10238000C0452888E400400000F1804000F5C040CE
:10239000FFF768FDD8F800100C4B89B20C446400BC
:1023A00023441F603168384621F4E04121F04001A8
:1023B00089B281F0300141F4004141F08001316087
:1023C000BDE8F0810020BDE8F08100BF046000405E
:1023D000505C0040F8B58C0004F1804404F5B8442A
:1023E0000E46216801F44051B1F5405F43D0234DC2
:1023F00010462968224A89B201EBC60149000A4405
:102400001268F700C2F309029A422ADB1D461B4BF1
:102410001A6803F56E7392B217447F003B44198823
:102420002A46490001F1804101F5C041FFF72EFD28
:1024300040F60F732168134A0B4043F0800323607A
:10244000935D63B9236823F4804323F070039BB248
:1024500083F4405343F4004343F080032360284651
:10246000F8BD2B68064A9BB23B445B001A441568D2
:10247000C5F30905CBE700252846F8BD505C0040B0
:102480000C6000404C020020394AF8B5136804463D
:10249000590549D41A049EB222D4310506D54FF20B
:1024A000FF71334A236A116003B19847F20406D5DD
:1024B0004EF6FF712E4A636A116003B19847B30567
:1024C00006D54FF6FF512A4AA36A116033B39847E5
:1024D000A36A1BB3274A136843F400731360F8BD63
:1024E00003F00F0713F0100327D140F60F72BD0061
:1024F00005F1804505F5B84529680A4042F40042D7
:102500002A6007EB470213441A3354F82330F3B11F
:102510003946204698473105C8D5C0E7154A1368A3
:1025200023F400731360F8BD40234FF6FF311160B0
:102530000383BDE8F840FEF7F9BEBD0005F1804514
:1025400005F5B8452B681B0509D40123D9E740F6EA
:102550000F732A68134043F080032B609DE7082324
:10256000394600F13002FFF735FF0223C9E700BF0B
:10257000445C0040405C0040844641EA000313F0A4
:10258000030349D1403A23D30B6803604B6843608F
:102590008B688360CB68C3600B6903614B694361DF
:1025A0008B698361CB69C3610B6A03624B6A4362C7
:1025B0008B6A8362CB6AC3620B6B03634B6B4363AF
:1025C0008B6B8363CB6BC36340304031403ADBD2CB
:1025D00030320BD30B6803604B6843608B688360B9
:1025E000CB68C36010301031103AF3D20C3205D3EF
:1025F00051F8043B40F8043B043AF9D2043208D0C5
:10260000D2071CBF11F8013B00F8013B01D30B8836
:1026100003806046704700BF082A13D38B07B1D0F0
:1026200010F00303AED0C3F10403D21ADB071CBFC2
:1026300011F8013B00F8013BA4D331F8023B20F82C
:10264000023B9FE7043AD9D3013A11F8013B00F865
:10265000013BF9D20B7803704B7843708B78837011
:102660006046704720F0030110F00300C0F1000045
:1026700051F8043B00F1040C4FEACC0C6FF000025F
:102680001CBF22FA0CF213434FF0010C4CEA0C2C45
:102690004CEA0C4CA3EB0C0222EA030212EACC1225
:1026A00004BF51F8043B0430F4D0C2F1000102EA47
:1026B0000102B2FA82F2C2F11F0200EBD2007047AF
:1026C00073746D33322D7673657270726F670000AC
:1026D00064776F7264313531312E696E666F000038
:1026E00053544D3332207669727475616C20736572
:1026F0007270726F6720666F7220666C61736872A9
:102700006F6D000005240010010524010001042460
:102710000200052406000100070583031000FF00E6
:102720000000000000000000090400000102020196
:10273000001827000804270008130000000000000C
:102740000902000002010080329C270008000000FE
:102750000705010240000100000000000000000722
:10276000058202400001000000000000000000009F
:1027700009040100020A00000050270008000000C0
:1027800000000000000000001201000202000040F2
:10279000830440570900010203010000000000000B
:1027A00001000000000000002827000800000000D1
:1027B00001000000000000007027000830313233B3
:1027C000343536373839414243444546000000002D
:1027D000311E0008DD1F0008ED1F00083D21000824
:1027E000F521000805230008C52200084923000838
:1027F000D523000889240008000000000000000024
:0428000000000000D4
:10280400D0260008E02600082800002000127A00E4
:0828140000127A0000127A00A4
:0400000508001EC908
:00000001FF
